:020000040000FA
:1000000034288316013081002F30A200831208307B
:10001000A100851683168512831208008312A000A2
:1000200085122120A00C03181928162885122120DA
:100030001C28851621201C28A10B1228851621209A
:100040000800220881000B1D23280B1108008316CD
:100050009F0183129F010730990083169901083090
:1000600085008312850108002720012041300E20E1
:10007000012042300E20012043300E204B20012071
:1000800044300E20012045300E204B204B20012013
:1000900046300E205028A30B4B28A40B4B280800F9
:0200A0005028E6
:0400A20000340034F2
:02400E00D53F9C
:00000001FF
