:020000040000FA
:0400000006EF00F017
:020004000000FA
:0800080015EF00F0C00EF26ECE
:10001000200E9D6ECF0EAF6EAC98AC84B896AB8EB2
:10002000AB88816A936A13EF00F0AECF81FF9E9A8E
:100030001000816A836A936A956A6FEC00F0300E53
:10004000816E78EC00F0300E816E8FEC00F08FEC5A
:1000500000F0300E816E0F0E816E83848394120047
:100060008380816E83848FEC00F0839494EC00F0A5
:100070001200010E3DEC00F012008390816E83842B
:100080008FEC00F083941200500E30EC00F0720EF2
:1000900030EC00F0650E30EC00F0730E30EC00F048
:1000A000690E30EC00F06F0E30EC00F06E0E30ECAC
:1000B00000F0200E30EC00F04D0E30EC00F0650E3C
:1000C00030EC00F0640E30EC00F0690E30EC00F023
:1000D000610E30EC00F03A0E30EC00F01200F70E3A
:1000E000226E1A0E236E222EFED7232EFCD712006C
:1000F000920E226E070E236E222EFED7232EFCD7E1
:100100001200410E226E222EFED71200970E226E92
:10011000030E236E222EFED7232EFCD712000F0EC5
:10012000226E222EFED71200226A236A030E246E4C
:0E013000222EFED7232EFCD7242EFAD7120043
:020000040030CA
:0100010001FD
:010002001BE2
:010003001EDE
:00000001FF
