:020000040000FA
:0400000006EF00F017
:020004000000FA
:080008002FEF00F0C00EF26EB4
:10001000200E9D6ECF0EAF6EAC98AC84B896AB8EB2
:10002000AB88816A936A49EC00F085EC00F033EC10
:1000300000F020C0E8FF300F60EC00F021C0E8FFC6
:10004000300F60EC00F022C0E8FF300F60EC00F0F1
:100050008D0E6DEC00F0D2EC00F017EF00F0AECF9B
:10006000E8FF9E9A1000216A206A226E0A0E225C26
:10007000D8A046EF00F0226E212A0A0E215CD8A0FB
:1000800036EF00F0216A202A36EF00F021382224D2
:100090001200816A836A936A956AADEC00F0300EB3
:1000A000816EB6EC00F0300E816ECDEC00F0CDEC40
:1000B00000F0300E816E0F0E816E838483941200E7
:1000C0008380816E8384CDEC00F08394D2EC00F0C9
:1000D0001200010E6DEC00F012008390816E83849B
:1000E000CDEC00F083941200040E6DEC00F01200D1
:1000F000040E6DEC00F0040E6DEC00F0040E6DECDF
:1001000000F012000C0E6DEC00F0500E60EC00F0F0
:10011000720E60EC00F0650E60EC00F0730E60ECA7
:1001200000F0690E60EC00F06F0E60EC00F06E0EF7
:1001300060EC00F0280E60EC00F04B0E60EC00F07C
:10014000700E60EC00F0610E60EC00F0290E60ECC7
:1001500000F03A0E60EC00F01200F70E256E1A0E59
:10016000266E252EFED7262EFCD71200920E256E67
:10017000070E266E252EFED7262EFCD71200410E26
:10018000256E252EFED71200970E256E030E266EC5
:10019000252EFED7262EFCD712000F0E256E252EFB
:1001A000FED71200256A266A030E276E252EFED77B
:0A01B000262EFCD7272EFAD71200E6
:020000040030CA
:0100010001FD
:010002001BE2
:010003001EDE
:00000001FF
