:020000040000FA
:10000000012883168501051411309F0083120130E9
:100010009F0022308400A201A301A401A501A60132
:10002000A701A801A901A001A1010830AD00442049
:100030008312442044209F149F1C1C2883161E08F2
:100040002B2049202E085620AD0B1828A001A10115
:100050000830AD0018288000A0070318A10A840A00
:1000600004082A3A2230031984000310210CAC0042
:10007000A00CAB000310AC0CAB0C0310AC0CAB0C25
:100080000318AB0A2B080800AF0B4428B00B442818
:1000900008008316013081002F30B300831208302E
:1000A000B200851683168512831208008312B100F0
:1000B00085126920B10C031861285E288512692019
:1000C0006428851669206428B20B5A288516692091
:0E00D0000800330881000B1D6B280B1108007F
:0200DE000034EC
:0200E0000034EA
:02400E00D53F9C
:00000001FF
