:020000040000FA
:10000000946A926AC66AC76AC00EC76E200EC66E30
:10001000949A9496928A16EC00F02FEC00F048EC3B
:1000200000F016EC00F0808AA0EF00F0400EC96EE0
:10003000C8EC00F0000EC96EC8EC00F0000EC96EEE
:10004000C8EC00F0000EC96EC8EC00F0000EC96EDE
:10005000C8EC00F0950EC96EC8EC00F01200410E1D
:10006000C96EC8EC00F0000EC96EC8EC00F0000EBE
:10007000C96EC8EC00F0000EC96EC8EC00F0000EAE
:10008000C96EC8EC00F0FF0EC96EC8EC00F012009B
:10009000500EC96EC8EC00F0000EC96EC8EC00F03E
:1000A000000EC96EC8EC00F0000EC96EC8EC00F07E
:1000B000000EC96EC8EC00F0FF0EC96EC8EC00F06F
:1000C0001200510EC96EC8EC00F0000EC96EC8ECEB
:1000D00000F0000EC96EC8EC00F0020EC96EC8EC4C
:1000E00000F0000EC96EC8EC00F0FF0EC96EC8EC3F
:1000F00000F01200580EC96EC8EC00F0000EC96E78
:10010000C8EC00F0000EC96EC8EC00F0020EC96E1B
:10011000C8EC00F0000EC96EC8EC00F0FF0EC96E0E
:10012000C8EC00F01200FF0EC96EC8EC00F0010E22
:10013000C95CD8A293EF00F0FF0EC96EC8EC00F0C6
:10014000929AA0EF00F0F70E006E1A0E016E002ECC
:10015000FED7012EFCD71200920E006E070E016E24
:10016000002EFED7012EFCD71200410E006E002E8D
:10017000FED71200970E006E030E016E002EFED702
:10018000012EFCD712000F0E006E002EFED71200BB
:10019000006A016A030E026E002EFED7012EFCD704
:0601A000022EFAD7120046
:0201A600000057
:020000040030CA
:0100010001FD
:010002001BE2
:010003001EDE
:00000001FF
