:020000040000FA
:020000000000FE
:10002000936A070E276E760E236A246A256E0A0EDF
:10003000255CD8A027EF00F0256E242A0A0E245C48
:10004000D8A017EF00F0246A232A17EF00F0243815
:1000500025241200816E2FEC00F02DEF00F0F80E39
:100060009616956A849412008C0E4DEC00F06AECA2
:1000700000F08C0E4DEC00F06AEC00F08C0E4DECB4
:1000800000F06AEC00F00C0E4DEC00F0010E4DECAF
:1000900000F0060E4DEC00F012008490836E5AECD6
:1000A00000F066EF00F08490836E5AEC00F08480DC
:1000B00066EF00F08482FF0E956E8484000083BE9C
:1000C0005FEF00F08494956A8492120084840000AB
:1000D00084941200262E6AEF00F0272E6AEF00F0BB
:0600E000070E276E12005E
:020000040030CA
:0100010001FD
:010002001BE2
:010003001EDE
:010005008377
:010006008574
:00000001FF
