:020000040000FA
:10000000012883168501051411309F0083120130E9
:100010009F0022308400A201A301A401A501A60132
:10002000A701A801A901A001A1010830AD003A2053
:1000300083129F149F1C1A2883163F201E084C20F1
:1000400018288000A0070318A10A840A04082A3A85
:100050002230031984000310210CAC00A00CAB006B
:100060000310AC0CAB0C0310AC0CAB0C0318AB0ABC
:100070002B080800AF0B3A28B00B3A28080083166B
:10008000013081002F30B30083120830B200851692
:1000900083168512831208008312B10085125F2037
:1000A000B10C03185728542885125F205A2885164A
:1000B0005F205A28B20B502885165F2008003308AD
:0A00C00081000B1D61280B110800E0
:0400CA0000340034CA
:02400E00D53F9C
:00000001FF
