:020000040000FA
:020000000000FE
:100020009268936A0B0EC16E0D0EC26E120EC06EF8
:1000300027EC00F053EC00F0C282C2A21DEF00F0EA
:10004000C45034EC00F0206E816E1AEF00F0230EE5
:10005000006E2B6A2C6A236A246A256A266A276A3C
:10006000286A296A2A6A12002F6EEF502B5ED8A0E8
:100070002C062F50EF6E2B26D8B02C2A002A0050C9
:100080002B0A230ED8B4006ED8902C302E6E2B3055
:100090002D6ED8902E322D32D8902E322D32D8B0EF
:1000A0002D2A2D501200212E53EF00F0222E53EF57
:0400B00000F012004A
:020000040030CA
:0100010001FD
:010002001BE2
:010003001EDE
:010005008377
:010006008574
:00000001FF
